:100000000C942A000C943F000C943F000C943F0089
:100010000C943F000C943F000C943F000C943F0064
:100020000C943F000C943F000C943F000C943F0054
:100030000C943F000C943F000C943F000C943F0044
:100040000C943F000C943F000C943F000C943F0034
:100050000C943F0011241FBECFE5D8E0DEBFCDBF1A
:1000600010E0A0E6B0E0E8EFF8E002C005900D92E5
:10007000A636B107D9F70E94C9030C947A040C94F0
:100080000000DF93CF93CDB7DEB7EAE3F0E080EF77
:100090008083E7E3F0E01082E4E3F0E01082E1E344
:1000A000F0E08EEF8083EBE3F0E08FE08083E8E325
:1000B000F0E01082E5E3F0E01082E2E3F0E081E0BE
:1000C0008083CF91DF910895DF93CF93CDB7DEB7D3
:1000D00027970FB6F894DEBF0FBECDBF8C836D831C
:1000E0001B828C81803230F48D81813031F08D81A2
:1000F000882319F081E08B83CEC08C8187708A833E
:100100008C8186958695869589838981282F30E014
:100110003F832E836E817F816130710509F441C078
:100120008E819F818230910534F42E813F8121158B
:10013000310571F0B0C06E817F816230710509F4C4
:1001400059C08E819F818330910509F47CC0A3C082
:100150008D81882321F08D81813009F01D82AAE3F1
:10016000B0E0EAE3F0E08081482F8A81282F30E078
:1001700081E090E002C0880F991F2A95E2F78095F0
:1001800048238D81282F30E08A81882F90E0B901A3
:1001900002C0660F771F8A95E2F7CB01842B8C9300
:1001A0007AC08D81882321F08D81813009F01D82F4
:1001B000A7E3B0E0E7E3F0E08081482F8A81282FB1
:1001C00030E081E090E002C0880F991F2A95E2F7A5
:1001D000809548238D81282F30E08A81882F90E0F8
:1001E000B90102C0660F771F8A95E2F7CB01842B15
:1001F0008C9351C08D81882321F08D81813009F04D
:100200001D82A4E3B0E0E4E3F0E08081482F8A811E
:10021000282F30E081E090E002C0880F991F2A95D6
:10022000E2F7809548238D81282F30E08A81882F3E
:1002300090E0B90102C0660F771F8A95E2F7CB0103
:10024000842B8C9328C08D81882321F08D8181306F
:1002500009F01D82A1E3B0E0E1E3F0E08081482FE6
:100260008A81282F30E081E090E002C0880F991F3A
:100270002A95E2F7809548238D81282F30E08A81E6
:10028000882F90E0B90102C0660F771F8A95E2F7C8
:10029000CB01842B8C938B8127960FB6F894DEBF0D
:1002A0000FBECDBFCF91DF910895DF93CF93CDB730
:1002B000DEB727970FB6F894DEBF0FBECDBF8C8395
:1002C0006D831B828C81803230F48D81813031F0DE
:1002D0008D81882319F081E08B83CEC08C8187705B
:1002E0008A838C8186958695869589838981282F36
:1002F00030E03F832E836E817F816130710509F488
:1003000041C08E819F818230910534F42E813F81DE
:100310002115310571F0B0C06E817F8162307105A9
:1003200009F459C08E819F818330910509F47CC006
:10033000A3C08D81882321F08D81813009F01D8239
:10034000ABE3B0E0EBE3F0E08081482F8A81282F17
:1003500030E081E090E002C0880F991F2A95E2F713
:10036000809548238D81282F30E08A81882F90E066
:10037000B90102C0660F771F8A95E2F7CB01842B83
:100380008C937AC08D81882321F08D81813009F092
:100390001D82A8E3B0E0E8E3F0E08081482F8A8185
:1003A000282F30E081E090E002C0880F991F2A9545
:1003B000E2F7809548238D81282F30E08A81882FAD
:1003C00090E0B90102C0660F771F8A95E2F7CB0172
:1003D000842B8C9351C08D81882321F08D818130B5
:1003E00009F01D82A5E3B0E0E5E3F0E08081482F4D
:1003F0008A81282F30E081E090E002C0880F991FA9
:100400002A95E2F7809548238D81282F30E08A8154
:10041000882F90E0B90102C0660F771F8A95E2F736
:10042000CB01842B8C9328C08D81882321F08D8172
:10043000813009F01D82A2E3B0E0E2E3F0E08081C8
:10044000482F8A81282F30E081E090E002C0880F99
:10045000991F2A95E2F7809548238D81282F30E057
:100460008A81882F90E0B90102C0660F771F8A95B4
:10047000E2F7CB01842B8C938B8127960FB6F894EF
:10048000DEBF0FBECDBFCF91DF910895DF93CF9335
:10049000CDB7DEB728970FB6F894DEBF0FBECDBF3D
:1004A0008C837E836D831B828C81803220F48D81CE
:1004B0009E81009719F481E08B8378C08C818770CE
:1004C0008A838C8186958695869589838981282F54
:1004D00030E038872F834F8158854130510559F1DD
:1004E0008F8198858230910534F42F8138852115CC
:1004F000310569F05BC04F8158854230510579F173
:100500008F8198858330910509F43DC04FC0E9E3A0
:10051000F0E08081282F30E08A81882F90E0A901C7
:1005200002C0559547958A95E2F7CA018170ED8121
:10053000FE8180833BC0E6E3F0E08081282F30E03D
:100540008A81882F90E0A90102C0559547958A9528
:10055000E2F7CA018170ED81FE81808327C0E3E369
:10056000F0E08081282F30E08A81882F90E0A90177
:1005700002C0559547958A95E2F7CA018170ED81D1
:10058000FE81808313C0E0E3F0E08081282F30E01B
:100590008A81882F90E0A90102C0559547958A95D8
:1005A000E2F7CA018170ED81FE8180838B812896FC
:1005B0000FB6F894DEBF0FBECDBFCF91DF91089587
:1005C000DF93CF9300D00F92CDB7DEB78A836B83D2
:1005D000198281E0898389810F900F900F90CF91CC
:1005E000DF910895DF93CF9300D000D00F92CDB765
:1005F000DEB78A836B8319828A81843018F081E0A8
:10060000898332C08A81282F30E03D832C838C81FE
:100610009D8181309105D1F02C813D8122303105C1
:100620002CF48C819D81009761F01EC02C813D814E
:100630002230310581F08C819D818330910581F0DC
:1006400013C0EBE3F0E08B8180830EC0E8E3F0E0C1
:100650008B81808309C0E5E3F0E08B81808304C057
:10066000E2E3F0E08B81808389810F900F900F90FF
:100670000F900F90CF91DF910895DF93CF9300D02B
:1006800000D000D0CDB7DEB78A837C836B8319821C
:100690008A81843018F081E089833AC08A81282FCA
:1006A00030E03E832D838D819E8181309105E1F084
:1006B0002D813E81223031052CF48D819E81009761
:1006C00061F026C02D813E8122303105A1F08D815F
:1006D0009E8183309105B1F01BC0E9E3F0E0808199
:1006E000EB81FC81808314C0E6E3F0E08081EB8144
:1006F000FC8180830DC0E3E3F0E08081EB81FC812D
:10070000808306C0E0E3F0E08081EB81FC818083A0
:10071000898126960FB6F894DEBF0FBECDBFCF916C
:10072000DF910895DF93CF9300D000D000D0CDB7F4
:10073000DEB79E838D831A8219821BC01C821B82A6
:100740000DC00000000000000000000000000000DC
:1007500000008B819C8101969C838B838B819C8183
:1007600021E08732920768F389819A8101969A8302
:10077000898329813A818D819E8128173907F0F27A
:1007800026960FB6F894DEBF0FBECDBFCF91DF9196
:100790000895DF93CF93CDB7DEB72B970FB6F894BC
:1007A000DEBF0FBECDBF0E944100CE0103960E9466
:1007B00000041A82198214C08981482F485E298159
:1007C0003A81CE010396FC01E20FF31F9081842F42
:1007D000692F0E94550189819A8101969A838983A4
:1007E00089819A81883091053CF380E090E02B96D6
:1007F0000FB6F894DEBF0FBECDBFCF91DF91089545
:10080000DF93CF93CDB7DEB728970FB6F894DEBF4E
:100810000FBECDBF98878F831D828F8198850097EB
:1008200011F481E08D831C821B821A8219821C8242
:1008300053C01B821CC09C818B81981759F48B81FB
:10084000882F90E0FC01ED59FF4F808160E00E940D
:1008500055010AC08B81882F90E0FC01ED59FF4FB4
:10086000808161E00E9455018B818F5F8B838B813A
:10087000833008F31A822AC08A81882F90E0FC0115
:10088000E05AFF4F80819E012A5F3F4FB9010E94CD
:1008900046028E81882359F48981282F30E08F8188
:1008A0009885FC01E20FF31F81E0808309C08981F4
:1008B000282F30E08F819885FC01E20FF31F108212
:1008C00089818F5F89838A818F5F8A838A81833060
:1008D00098F28C818F5F8C838C81833008F4A9CF50
:1008E0008D8128960FB6F894DEBF0FBECDBFCF9195
:0808F000DF910895F894FFCF99
:0608F800000102040506E8
:00000001FF
