:100000000C942A000C943F000C943F000C943F0089
:100010000C943F000C943F000C943F000C943F0064
:100020000C943F000C943F000C943F000C943F0054
:100030000C943F000C943F000C943F000C943F0044
:100040000C943F000C943F000C943F000C943F0034
:100050000C943F0011241FBECFE5D8E0DEBFCDBF1A
:1000600010E0A0E6B0E0E4E5F6E102C005900D92F4
:10007000A836B107D9F70E94A7090C94280B0C9455
:100080000000EF92FF920F931F937B018C0120E001
:1000900030E040E05FE40E94410388238CF0C80117
:1000A000B70120E030E040E05FE40E94B9010E9427
:1000B000A1039B01AC01205030404040504806C095
:1000C000C801B7010E94A1039B01AC01B901CA019B
:1000D0001F910F91FF90EF900895A0E0B0E0E3E74B
:1000E000F0E00C94F10ADC012B01FA019C919230B2
:1000F00008F439C1EB018881823008F433C19430AF
:1001000069F4843009F02FC111969C91119789816F
:10011000981709F428C1A0E6B0E025C1843009F49D
:1001200021C18230A9F4923009F01DC19A01AD01BC
:1001300088E0EA010990AE01E90109929E0181502F
:10014000C1F7E201898111969C918923818308C1BD
:10015000923009F407C112962D903C901397EB0151
:100160008A819B811496AD90BD90CD90DC901797BD
:10017000EC80FD800E811F819101281B390BB90194
:1001800037FF04C066277727621B730B6032710547
:100190000CF061C0121613066CF537014801062EEB
:1001A00004C096948794779467940A94D2F721E0D8
:1001B00030E040E050E004C0220F331F441F551FC1
:1001C0006A95D2F721503040404050402E213F21C7
:1001D00040235123211531054105510521F021E02E
:1001E00030E040E050E079018A01E628F72808294C
:1001F00019293CC0232BD1F1260E371E35014601AB
:10020000062E04C096948794779467940A94D2F744
:1002100021E030E040E050E004C0220F331F441FD3
:10022000551F6A95D2F721503040404050402A2156
:100230003B214C215D21211531054105510521F05E
:1002400021E030E040E050E059016A01A628B728DB
:10025000C828D9280BC0821593052CF01C01AA24AC
:10026000BB24650103C0EE24FF24870111969C91F5
:10027000D20111968C91981709F445C0992339F051
:10028000A80197012A193B094C095D0906C0A6017E
:1002900095012E193F09400B510B57FD08C01182E3
:1002A0003382228224833583468357831DC081E0B5
:1002B00081833382228288279927DC01821B930B5A
:1002C000A40BB50B84839583A683B7830DC0220F3F
:1002D000331F441F551F24833583468357838281F0
:1002E000938101979383828324813581468157814D
:1002F000DA01C9010197A109B1098F5F9F4FAF4F83
:10030000BF4328F30BC0918333822282EA0CFB1C8B
:100310000C1D1D1DE482F5820683178383E0808314
:10032000248135814681578157FF1AC0C901AA2708
:1003300097FDA095BA2F81709070A070B0705695FF
:10034000479537952795822B932BA42BB52B848328
:100350009583A683B7838281938101969383828359
:10036000DF0101C0D201CD01CDB7DEB7E2E10C94CF
:100370000D0BA0E2B0E0EFEBF1E00C94FD0A698315
:100380007A838B839C832D833E834F835887E9E058
:10039000EE2EF12CEC0EFD1ECE010196B7010E944F
:1003A000CA048E010F5E1F4FCE010596B8010E9450
:1003B000CA048A8991E089278A8BC701B801AE01F6
:1003C000475E5F4F0E946D000E94F503A096E6E035
:1003D0000C94190BA0E2B0E0E0EFF1E00C94FD0A00
:1003E00069837A838B839C832D833E834F835887D5
:1003F000F9E0EF2EF12CEC0EFD1ECE010196B701B7
:100400000E94CA048E010F5E1F4FCE010596B801EF
:100410000E94CA04C701B801AE01475E5F4F0E9447
:100420006D000E94F503A096E6E00C94190BA0E283
:10043000B0E0EDE1F2E00C94F10A69837A838B83FA
:100440009C832D833E834F835887CE010196BE0146
:10045000675F7F4F0E94CA04CE010596BE016F5EA2
:100460007F4F0E94CA049985923088F08989823032
:10047000C8F0943019F4823051F404C0843029F467
:10048000923081F480E690E0C6C0923049F420E0DA
:100490009A858A89981321E02A87CE010996BBC0E4
:1004A000823049F420E09A858A89981321E02A8BCA
:1004B000CE014196B0C02D843E844F8458886D880B
:1004C0007E888F88988CEE24FF248701AA24BB2481
:1004D000650140E050E060E070E0E0E0F0E0C10184
:1004E00081709070892BE9F0E60CF71C081D191D2E
:1004F0009A01AB012A0D3B1D4C1D5D1D80E090E073
:10050000A0E0B0E0E614F7040805190520F481E046
:1005100090E0A0E0B0E0BA01A901480F591F6A1F9E
:100520007B1FAA0CBB1CCC1CDD1C97FE08C081E005
:1005300090E0A0E0B0E0A82AB92ACA2ADB2A3196C6
:10054000E032F10549F0660C771C881C991C569422
:10055000479437942794C3CFFA85EA892B893C893D
:100560008B859C85280F391F2E5F3F4F17C0CA010E
:1005700081709070892B61F016950795F794E79438
:1005800080E090E0A0E0B0E8E82AF92A0A2B1B2BD3
:1005900076956795579547952F5F3F4F77FDE7CF46
:1005A0000CC0440F551F661F771F17FD4160EE0CEE
:1005B000FF1C001F111F21503040403090E05907B0
:1005C00090E0690790E4790760F32B8F3C8FDB01A3
:1005D000CA018F779070A070B07080349105A1052A
:1005E000B10561F447FD0AC0E114F10401051105EC
:1005F00029F0405C5F4F6F4F7F4F40781A8EFE1797
:1006000011F081E08A8F4D8F5E8F6F8F78A383E02A
:10061000898FCE0149960E94F503A096E2E10C94E1
:100620000D0BA8E1B0E0E7E1F3E00C94FD0A69836B
:100630007A838B839C832D833E834F83588789E005
:10064000E82EF12CEC0EFD1ECE010196B7010E94A2
:10065000CA048E010F5E1F4FCE010596B8010E949D
:10066000CA048985823040F08989823028F0C70128
:10067000B8010E94420501C08FEF6896E6E00C9435
:10068000190BA8E1B0E0E7E4F3E00C94FD0A6983FC
:100690007A838B839C832D833E834F83588789E0A5
:1006A000E82EF12CEC0EFD1ECE010196B7010E9442
:1006B000CA048E010F5E1F4FCE010596B8010E943D
:1006C000CA048985823040F08989823028F0C701C8
:1006D000B8010E94420501C08FEF6896E6E00C94D5
:1006E000190BA8E1B0E0E7E7F3E00C94FD0A698399
:1006F0007A838B839C832D833E834F83588789E045
:10070000E82EF12CEC0EFD1ECE010196B7010E94E1
:10071000CA048E010F5E1F4FCE010596B8010E94DC
:10072000CA048985823040F08989823028F0C70167
:10073000B8010E94420501C081E06896E6E00C9491
:10074000190BACE0B0E0E7EAF3E00C94010B69832D
:100750007A838B839C83CE010196BE016B5F7F4FB2
:100760000E94CA048D81823061F1823050F1843060
:1007700021F48E81882351F12EC02F81388537FDD9
:1007800020C06E812F3131051CF06623F9F023C0A3
:100790008EE190E0821B930B29853A854B855C8521
:1007A00004C056954795379527958A95D2F76623C5
:1007B000B1F050954095309521953F4F4F4F5F4F89
:1007C0000EC020E030E040E050E009C02FEF3FEFE6
:1007D0004FEF5FE704C020E030E040E050E8B901AF
:1007E000CA012C96E2E00C941D0BDF92EF92FF926F
:1007F0000F931F93FC01E480F58006811781D1805F
:100800008081823048F480E090E0A0E1B0E0E82A06
:10081000F92A0A2B1B2BA5C0843009F49FC0823013
:1008200021F4EE24FF24870105C0E114F104010541
:10083000110519F4E0E0F0E096C0628173819FEF4A
:10084000623879070CF05BC022E83FEF261B370BBC
:100850002A3131052CF020E030E040E050E02AC0A1
:10086000B801A701022E04C0769567955795479564
:100870000A94D2F781E090E0A0E0B0E004C0880FD5
:10088000991FAA1FBB1F2A95D2F70197A109B10989
:100890008E219F21A023B1230097A105B10521F04E
:1008A00081E090E0A0E0B0E09A01AB01282B392B69
:1008B0004A2B5B2BDA01C9018F779070A070B07062
:1008C00080349105A105B10539F427FF09C0205CEA
:1008D0003F4F4F4F5F4F04C0215C3F4F4F4F5F4F23
:1008E000E0E0F0E02030A0E03A07A0E04A07A0E412
:1008F0005A0710F0E1E0F0E079018A0127C0603882
:10090000710564F5FB01E158FF4FD801C7018F77EE
:100910009070A070B07080349105A105B10539F4D4
:10092000E7FE0DC080E490E0A0E0B0E004C08FE3FB
:1009300090E0A0E0B0E0E80EF91E0A1F1B1F17FFB1
:1009400005C016950795F794E794319687E01695BC
:100950000795F794E7948A95D1F705C0EE24FF2414
:100960008701EFEFF0E06E2F679566276795902F70
:100970009F77D794DD24D7948E2F8695492F462BC9
:10098000582F5D29B701CA011F910F91FF90EF9079
:10099000DF900895FC01DB01408151812281622FAB
:1009A0006F7770E0221F2227221F9381892F880FE3
:1009B000822B282F30E0991F9927991F11969C931D
:1009C000119721153105A9F54115510561057105ED
:1009D00011F482E037C082E89FEF13969C938E93C8
:1009E00012979A01AB0167E0220F331F441F551F76
:1009F0006A95D1F783E08C930DC0220F331F441FFB
:100A0000551F12968D919C911397019713969C9365
:100A10008E931297203080E0380780E0480780E40A
:100A2000580758F314962D933D934D935C93179765
:100A300008952F3F310579F4411551056105710580
:100A400019F484E08C93089564FF03C081E08C93D3
:100A500012C01C9210C02F57304013963C932E9317
:100A6000129783E08C9387E0440F551F661F771F12
:100A70008A95D1F7706414964D935D936D937C9332
:100A8000179708951F93DC01FB019C91923008F4A5
:100A900047C08081823008F443C0943051F41196ED
:100AA0001C91843099F58181682F70E0611B710978
:100AB0003FC0843021F0923031F48230B9F181812D
:100AC000882389F12DC011961C9111978230F1F085
:100AD00081811817D9F412962D913C911397828138
:100AE00093818217930794F028173907BCF0149666
:100AF0008D919D910D90BC91A02D248135814681D1
:100B00005781281739074A075B0718F4112341F06A
:100B10000AC082179307A407B50740F4112319F000
:100B200061E070E005C06FEF7FEF02C060E070E051
:100B3000CB011F910895DF93CF93CDB7DEB7EAE3E2
:100B4000F0E0808181608083EAE3F0E08081826070
:100B50008083EAE3F0E0808184608083EAE3F0E070
:100B6000808188608083EAE3F0E080818061808317
:100B7000EAE3F0E0808180628083EAE3F0E0808154
:100B800080648083EAE3F0E0808180688083E7E32B
:100B9000F0E0808181608083E7E3F0E08081826023
:100BA0008083E7E3F0E0808184608083E7E3F0E026
:100BB000808188608083E7E3F0E0808180618083CA
:100BC000E7E3F0E0808180628083E7E3F0E080810A
:100BD00080648083E7E3F0E0808180688083E4E3E1
:100BE000F0E0808181608083E4E3F0E080818260D6
:100BF0008083E4E3F0E0808184608083E4E3F0E0DC
:100C0000808188608083E4E3F0E08081806180837C
:100C1000E4E3F0E0808180628083E4E3F0E08081BF
:100C200080648083E4E3F0E0808180688083E1E396
:100C3000F0E0808181608083E1E3F0E08081826088
:100C40008083E1E3F0E0808184608083E1E3F0E091
:100C5000808188608083E1E3F0E08081806180832F
:100C6000E1E3F0E0808180628083E1E3F0E0808175
:100C700080648083E4E3F0E080818068808380E0AA
:100C8000CF91DF910895DF93CF93CDB7DEB727974C
:100C90000FB6F894DEBF0FBECDBF8C836D831B8271
:100CA0008C81803230F48D81813031F08D818823C8
:100CB00019F081E08B83CEC08C8187708A838C8110
:100CC00086958695869589838981282F30E03F8394
:100CD0002E836E817F816130710509F441C08E8160
:100CE0009F818230910534F42E813F812115310599
:100CF00071F0B0C06E817F816230710509F459C016
:100D00008E819F818330910509F47CC0A3C08D81C1
:100D1000882321F08D81813009F01D82AAE3B0E0A3
:100D2000EAE3F0E08081482F8A81282F30E081E0DB
:100D300090E002C0880F991F2A95E2F7809548231A
:100D40008D81282F30E08A81882F90E0B90102C080
:100D5000660F771F8A95E2F7CB01842B8C937AC0BC
:100D60008D81882321F08D81813009F01D82A7E3D8
:100D7000B0E0E7E3F0E08081482F8A81282F30E05F
:100D800081E090E002C0880F991F2A95E2F78095D4
:100D900048238D81282F30E08A81882F90E0B90187
:100DA00002C0660F771F8A95E2F7CB01842B8C93E4
:100DB00051C08D81882321F08D81813009F01D8201
:100DC000A4E3B0E0E4E3F0E08081482F8A81282F9B
:100DD00030E081E090E002C0880F991F2A95E2F789
:100DE000809548238D81282F30E08A81882F90E0DC
:100DF000B90102C0660F771F8A95E2F7CB01842BF9
:100E00008C9328C08D81882321F08D81813009F059
:100E10001D82A1E3B0E0E1E3F0E08081482F8A8108
:100E2000282F30E081E090E002C0880F991F2A95BA
:100E3000E2F7809548238D81282F30E08A81882F22
:100E400090E0B90102C0660F771F8A95E2F7CB01E7
:100E5000842B8C938B8127960FB6F894DEBF0FBE40
:100E6000CDBFCF91DF910895DF93CF93CDB7DEB79C
:100E700027970FB6F894DEBF0FBECDBF8C836D836E
:100E80001B828C81803230F48D81813031F08D81F4
:100E9000882319F081E08B83CEC08C8187708A8390
:100EA0008C8186958695869589838981282F30E067
:100EB0003F832E836E817F816130710509F441C0CB
:100EC0008E819F818230910534F42E813F812115DE
:100ED000310571F0B0C06E817F816230710509F417
:100EE00059C08E819F818330910509F47CC0A3C0D5
:100EF0008D81882321F08D81813009F01D82ABE343
:100F0000B0E0EBE3F0E08081482F8A81282F30E0C9
:100F100081E090E002C0880F991F2A95E2F7809542
:100F200048238D81282F30E08A81882F90E0B901F5
:100F300002C0660F771F8A95E2F7CB01842B8C9352
:100F40007AC08D81882321F08D81813009F01D8246
:100F5000A8E3B0E0E8E3F0E08081482F8A81282F01
:100F600030E081E090E002C0880F991F2A95E2F7F7
:100F7000809548238D81282F30E08A81882F90E04A
:100F8000B90102C0660F771F8A95E2F7CB01842B67
:100F90008C9351C08D81882321F08D81813009F09F
:100FA0001D82A5E3B0E0E5E3F0E08081482F8A816F
:100FB000282F30E081E090E002C0880F991F2A9529
:100FC000E2F7809548238D81282F30E08A81882F91
:100FD00090E0B90102C0660F771F8A95E2F7CB0156
:100FE000842B8C9328C08D81882321F08D818130C2
:100FF00009F01D82A2E3B0E0E2E3F0E08081482F37
:101000008A81282F30E081E090E002C0880F991F8C
:101010002A95E2F7809548238D81282F30E08A8138
:10102000882F90E0B90102C0660F771F8A95E2F71A
:10103000CB01842B8C938B8127960FB6F894DEBF5F
:101040000FBECDBFCF91DF910895DF93CF93CDB782
:10105000DEB728970FB6F894DEBF0FBECDBF8C83E6
:101060007E836D831B828C81803220F48D819E81F2
:10107000009719F481E08B8388C08C8187708A8304
:101080008C8186958695869589838981282F30E085
:1010900038872F834F8158854130510579F18F81F1
:1010A00098858230910534F42F81388521153105DA
:1010B00069F06BC04F81588542305105B9F18F817D
:1010C00098858330910509F449C05FC0A9E3B0E079
:1010D000E9E3F0E08081282F30E08A81882F90E0DA
:1010E000A90102C0559547958A95E2F7CA0181701A
:1010F0008C938C91ED81FE81808347C0A6E3B0E0A4
:10110000E6E3F0E08081282F30E08A81882F90E0AC
:10111000A90102C0559547958A95E2F7CA018170E9
:101120008C938C91ED81FE8180832FC0A3E3B0E08E
:10113000E3E3F0E08081282F30E08A81882F90E07F
:10114000A90102C0559547958A95E2F7CA018170B9
:101150008C938C91ED81FE81808317C0A0E3B0E079
:10116000E0E3F0E08081282F30E08A81882F90E052
:10117000A90102C0559547958A95E2F7CA01817089
:101180008C938C91ED81FE8180838B8128960FB6A4
:10119000F894DEBF0FBECDBFCF91DF910895DF93EE
:1011A000CF9300D00F92CDB7DEB78A836B831982BD
:1011B00081E0898389810F900F900F90CF91DF910B
:1011C0000895DF93CF9300D000D00F92CDB7DEB754
:1011D0008A836B8319828A81843018F081E0898345
:1011E00032C08A81282F30E03D832C838C819D8101
:1011F00081309105D1F02C813D81223031052CF4D4
:101200008C819D81009761F01EC02C813D81223030
:10121000310581F08C819D818330910581F013C06F
:10122000EBE3F0E08B8180830EC0E8E3F0E08B819C
:10123000808309C0E5E3F0E08B81808304C0E2E3B2
:10124000F0E08B81808389810F900F900F900F9039
:101250000F90CF91DF910895DF93CF9300D000D00E
:1012600000D0CDB7DEB78A837C836B8319828A81F5
:10127000843018F081E089833AC08A81282F30E0D9
:101280003E832D838D819E8181309105E1F02D81FA
:101290003E81223031052CF48D819E81009761F0D2
:1012A00026C02D813E8122303105A1F08D819E81A5
:1012B00083309105B1F01BC0E9E3F0E08081EB8160
:1012C000FC81808314C0E6E3F0E08081EB81FC8147
:1012D00080830DC0E3E3F0E08081EB81FC818083BB
:1012E00006C0E0E3F0E08081EB81FC8180838981AE
:1012F00026960FB6F894DEBF0FBECDBFCF91DF911B
:101300000895DF93CF93CDB7DEB780E0CF91DF9123
:101310000895DF93CF930F92CDB7DEB7898389818C
:1013200061E00E94340780E00F90CF91DF91089533
:10133000DF93CF930F92CDB7DEB78983898160E0C9
:101340000E94340780E00F90CF91DF910895DF93E2
:10135000CF93CDB7DEB762970FB6F894DEBF0FBE5E
:10136000CDBF81E08A8B198A188A1F868A898130CD
:1013700051F488E10E9489098AE10E9498091A8A39
:1013800081E0888B19C08889813051F489E10E94FD
:10139000890988E10E949809188A81E0898B0CC02C
:1013A0008989813049F48AE10E94890989E10E9492
:1013B0009809198A81E08A8B8AE08F8779C08F85A6
:1013C00081500E945D0A80E090E0A8ECB2E48B8737
:1013D0009C87AD87BE876B857C858D859E8520E04B
:1013E00030E04AEF54E40E941702DC01CB018F8306
:1013F0009887A987BA876F81788589859A8520E043
:1014000030E040E85FE30E94710388232CF481E020
:1014100090E09E838D833FC06F81788589859A8512
:1014200020E03FEF4FE757E40E94110318164CF5F8
:101430006B857C858D859E8520E030E040E251E41F
:101440000E941702DC01CB01BC01CD010E944100CA
:10145000DC01CB019E838D830FC088EC90E09C83E0
:101460008B838B819C810197F1F79C838B838D818A
:101470009E8101979E838D838D819E81009769F760
:1014800014C06F81788589859A850E944100DC01AE
:10149000CB019E838D838D819E819A8389838981EF
:1014A0009A810197F1F79A8389838F8581508F877D
:1014B0008F85882309F083CF59CFDF93CF9300D056
:1014C00000D0CDB7DEB78A83198280E06FEF0E942B
:1014D000CF088A81282F30E03C832B838B819C812D
:1014E0008430910509F455C02B813C8125303105AC
:1014F000DCF48B819C818130910509F43BC02B8108
:101500003C81223031052CF48B819C81009769F15C
:101510005EC02B813C812230310589F18B819C8119
:101520008330910589F153C02B813C8127303105EF
:1015300009F43EC08B819C81883091055CF42B813D
:101540003C812530310551F18B819C81863091059C
:1015500051F13DC02B813C812830310571F18B81E7
:101560009C818930910571F132C080E06EE70E9464
:10157000E1082FC080E060E60E94E1082AC080E018
:1015800066EB0E94E10825C080E06EE90E94E10858
:1015900020C080E06CEC0E94E1081BC080E06AED96
:1015A0000E94E10816C080E06AEF0E94E10811C0C5
:1015B00080E06EE00E94E1080CC080E06EEF0E94C7
:1015C000E10807C080E06EED0E94E10802C081E002
:1015D000898389810F900F900F900F90CF91DF91A9
:1015E00008952F923F924F925F926F927F928F92C7
:1015F0009F92AF92BF92CF92DF92EF92FF920F93A2
:101600001F93CF93DF93CDB7DEB7CA1BDB0B0FB6AB
:10161000F894DEBF0FBECDBF09942A883988488868
:101620005F846E847D848C849B84AA84B984C884FE
:10163000DF80EE80FD800C811B81AA81B981CE0FF5
:10164000D11D0FB6F894DEBF0FBECDBFED010895DA
:04165000F894FFCF3C
:0816540000000000000000008E
:00000001FF
