:100000000C942A000C9434000C9434000C943400AA
:100010000C9434000C9434000C9434000C94340090
:100020000C9434000C9434000C9434000C94340080
:100030000C9434000C9434000C9434000C94340070
:100040000C9434000C9434000C9434000C94340060
:100050000C94340011241FBECFE5D8E0DEBFCDBF25
:100060000E9436000C944A000C940000DF93CF935A
:10007000CDB7DEB7E1E3F0E01082E4E3F0E08FEF2C
:100080008083E2E3F0E08FE68083E5E3F0E08FE455
:080090008083F7CFF894FFCF45
:00000001FF
