:100000000C942A000C9434000C9434000C943400AA
:100010000C9434000C9434000C9434000C94340090
:100020000C9434000C9434000C9434000C94340080
:100030000C9434000C9434000C9434000C94340070
:100040000C9434000C9434000C9434000C94340060
:100050000C94340011241FBECFE5D8E0DEBFCDBF25
:100060000E9436000C945B000C940000DF93CF9349
:10007000CDB7DEB7EAE3F0E08FEF8083E7E3F0E0AF
:100080008FEF8083E4E3F0E08FEF8083E1E3F0E043
:100090008FEF8083EBE3F0E08FEF8083E8E3F0E025
:1000A0008FEF8083E5E3F0E08FEF8083E2E3F0E021
:0A00B0008FEF8083EFCFF894FFCFAD
:00000001FF
