:100000000C942A000C943F000C943F000C943F0089
:100010000C943F000C943F000C943F000C943F0064
:100020000C943F000C943F000C943F000C943F0054
:100030000C943F000C943F000C943F000C943F0044
:100040000C943F000C943F000C943F000C943F0034
:100050000C943F0011241FBECFE5D8E0DEBFCDBF1A
:1000600010E0A0E6B0E0E4E5FBE002C005900D92F0
:10007000A83DB107D9F70E94CB030C94A8050C94B6
:100080000000DF93CF93CDB7DEB7EAE3F0E08FEF68
:100090008083E7E3F0E08FEF8083E4E3F0E080EF3C
:1000A0008083E1E3F0E08FEF8083EBE3F0E0108208
:1000B000E8E3F0E01082E5E3F0E08FE08083E2E344
:1000C000F0E08FEF8083CF91DF910895DF93CF939E
:1000D000CDB7DEB727970FB6F894DEBF0FBECDBF02
:1000E0008C836D831B828C81803230F48D818130D2
:1000F00031F08D81882319F081E08B83CEC08C8113
:1001000087708A838C818695869586958983898177
:10011000282F30E03F832E836E817F81613071050F
:1001200009F441C08E819F818230910534F42E8183
:100130003F812115310571F0B0C06E817F81623041
:10014000710509F459C08E819F818330910509F4AE
:100150007CC0A3C08D81882321F08D81813009F07E
:100160001D82AAE3B0E0EAE3F0E08081482F8A81B3
:10017000282F30E081E090E002C0880F991F2A9577
:10018000E2F7809548238D81282F30E08A81882FDF
:1001900090E0B90102C0660F771F8A95E2F7CB01A4
:1001A000842B8C937AC08D81882321F08D818130BE
:1001B00009F01D82A7E3B0E0E7E3F0E08081482F7B
:1001C0008A81282F30E081E090E002C0880F991FDB
:1001D0002A95E2F7809548238D81282F30E08A8187
:1001E000882F90E0B90102C0660F771F8A95E2F769
:1001F000CB01842B8C9351C08D81882321F08D817C
:10020000813009F01D82A4E3B0E0E4E3F0E08081F6
:10021000482F8A81282F30E081E090E002C0880FCB
:10022000991F2A95E2F7809548238D81282F30E089
:100230008A81882F90E0B90102C0660F771F8A95E6
:10024000E2F7CB01842B8C9328C08D81882321F089
:100250008D81813009F01D82A1E3B0E0E1E3F0E09F
:100260008081482F8A81282F30E081E090E002C011
:10027000880F991F2A95E2F7809548238D81282FB2
:1002800030E08A81882F90E0B90102C0660F771FA5
:100290008A95E2F7CB01842B8C938B8127960FB63E
:1002A000F894DEBF0FBECDBFCF91DF910895DF93ED
:1002B000CF93CDB7DEB727970FB6F894DEBF0FBE4A
:1002C000CDBF8C836D831B828C81803230F48D8115
:1002D000813031F08D81882319F081E08B83CEC08D
:1002E0008C8187708A838C81869586958695898393
:1002F0008981282F30E03F832E836E817F8161309A
:10030000710509F441C08E819F818230910534F4DA
:100310002E813F812115310571F0B0C06E817F8142
:100320006230710509F459C08E819F818330910537
:1003300009F47CC0A3C08D81882321F08D81813098
:1003400009F01D82ABE3B0E0EBE3F0E08081482FE1
:100350008A81282F30E081E090E002C0880F991F49
:100360002A95E2F7809548238D81282F30E08A81F5
:10037000882F90E0B90102C0660F771F8A95E2F7D7
:10038000CB01842B8C937AC08D81882321F08D81C1
:10039000813009F01D82A8E3B0E0E8E3F0E080815D
:1003A000482F8A81282F30E081E090E002C0880F3A
:1003B000991F2A95E2F7809548238D81282F30E0F8
:1003C0008A81882F90E0B90102C0660F771F8A9555
:1003D000E2F7CB01842B8C9351C08D81882321F0CF
:1003E0008D81813009F01D82A5E3B0E0E5E3F0E006
:1003F0008081482F8A81282F30E081E090E002C080
:10040000880F991F2A95E2F7809548238D81282F20
:1004100030E08A81882F90E0B90102C0660F771F13
:100420008A95E2F7CB01842B8C9328C08D81882399
:1004300021F08D81813009F01D82A2E3B0E0E2E37A
:10044000F0E08081482F8A81282F30E081E090E021
:1004500002C0880F991F2A95E2F7809548238D8165
:10046000282F30E08A81882F90E0B90102C0660F02
:10047000771F8A95E2F7CB01842B8C938B8127968B
:100480000FB6F894DEBF0FBECDBFCF91DF910895B8
:10049000DF93CF93CDB7DEB728970FB6F894DEBFC2
:1004A0000FBECDBF8C837E836D831B828C81803297
:1004B00020F48D819E81009719F481E08B8378C0B0
:1004C0008C8187708A838C818695869586958983B1
:1004D0008981282F30E038872F834F81588541301C
:1004E000510559F18F8198858230910534F42F811F
:1004F00038852115310569F05BC04F815885423040
:10050000510579F18F8198858330910509F43DC0BB
:100510004FC0E9E3F0E08081282F30E08A81882F06
:1005200090E0A90102C0559547958A95E2F7CA0166
:100530008170ED81FE8180833BC0E6E3F0E0808145
:10054000282F30E08A81882F90E0A90102C05595BC
:1005500047958A95E2F7CA018170ED81FE8180831B
:1005600027C0E3E3F0E08081282F30E08A81882FE4
:1005700090E0A90102C0559547958A95E2F7CA0116
:100580008170ED81FE81808313C0E0E3F0E0808123
:10059000282F30E08A81882F90E0A90102C055956C
:1005A00047958A95E2F7CA018170ED81FE818083CB
:1005B0008B8128960FB6F894DEBF0FBECDBFCF91CA
:1005C000DF910895DF93CF9300D00F92CDB7DEB7C0
:1005D0008A836B83198281E0898389810F900F90D0
:1005E0000F90CF91DF910895DF93CF9300D000D08B
:1005F0000F92CDB7DEB78A836B8319828A818430EC
:1006000018F081E0898332C08A81282F30E03D8351
:100610002C838C819D8181309105D1F02C813D818D
:10062000223031052CF48C819D81009761F01EC031
:100630002C813D812230310581F08C819D81833078
:10064000910581F013C0EBE3F0E08B8180830EC055
:10065000E8E3F0E08B81808309C0E5E3F0E08B8183
:10066000808304C0E2E3F0E08B81808389810F9076
:100670000F900F900F900F90CF91DF910895DF931F
:10068000CF9300D000D000D0CDB7DEB78A837C8373
:100690006B8319828A81843018F081E089833AC0A3
:1006A0008A81282F30E03E832D838D819E81813089
:1006B0009105E1F02D813E81223031052CF48D81B0
:1006C0009E81009761F026C02D813E812230310548
:1006D000A1F08D819E8183309105B1F01BC0E9E3CB
:1006E000F0E08081EB81FC81808314C0E6E3F0E0E0
:1006F0008081EB81FC8180830DC0E3E3F0E08081A9
:10070000EB81FC81808306C0E0E3F0E08081EB8137
:10071000FC818083898126960FB6F894DEBF0FBED8
:10072000CDBFCF91DF910895DF93CF9300D000D05C
:1007300000D0CDB7DEB79E838D831A8219821BC08D
:100740001C821B820DC000000000000000000000A1
:100750000000000000008B819C8101969C838B83AC
:100760008B819C8121E08732920768F389819A818D
:1007700001969A83898329813A818D819E812817E8
:100780003907F0F226960FB6F894DEBF0FBECDBF44
:10079000CF91DF910895DF93CF93CDB7DEB7639705
:1007A0000FB6F894DEBF0FBECDBF0E94410081E0BE
:1007B0008A83CE0104960E94C0048985813009F5A0
:1007C00019821BC01B8213C020E630E08981882F6C
:1007D00090E0880F991F880F991F880F991F820F2B
:1007E000931F61E00E943A058B818F5F8B838B8121
:1007F000823150F389818F5F89838981833010F33F
:10080000D8CF8A85813049F58A818F5F8A838A8132
:10081000893011F481E08A8319821BC01B8213C0C6
:1008200028E730E08A81882F90E0880F991F880F91
:10083000991F880F991F820F931F61E00E943A054C
:100840008B818F5F8B838B81853050F389818F5FA4
:1008500089838981893010F3ACCF8885813049F54F
:100860008A8181508A838A81882311F488E08A836F
:1008700019821BC01B8213C028E730E08A81882FB1
:1008800090E0880F991F880F991F880F991F820F7A
:10089000931F61E00E943A058B818F5F8B838B8170
:1008A000853050F389818F5F89838981893010F386
:1008B00080CF8D85813011F51A8219821BC01B8271
:1008C00013C028E730E08A81882F90E0880F991FB5
:1008D000880F991F880F991F820F931F61E00E9454
:1008E0003A058B818F5F8B838B81823150F38981B5
:1008F0008F5F89838981893010F35BCF8D8181304F
:1009000031F58A81882311F481E08A8319821BC022
:100910001B8213C028E730E08A81882F90E0880F7F
:10092000991F880F991F880F991F820F931F61E0ED
:100930000E943A058B818F5F8B838B81823150F3CC
:1009400089818F5F89838981893010F332CF198241
:1009500013C028E730E08A81882F90E0880F991F24
:10096000880F991F880F991F820F931F61E00E94C3
:100970003A0589818F5F89838981893050F319CF46
:10098000DF93CF93CDB7DEB728970FB6F894DEBFCD
:100990000FBECDBF98878F831D828F81988500976A
:1009A00011F481E08D831C821B821A8219821C82C1
:1009B00053C01B821CC09C818B81981759F48B817A
:1009C000882F90E0FC01E453FF4F808160E00E949B
:1009D00057010AC08B81882F90E0FC01E453FF4F40
:1009E000808161E00E9457018B818F5F8B838B81B7
:1009F000843008F31A822AC08A81882F90E0FC0193
:100A0000E853FF4F80819E012A5F3F4FB9010E944A
:100A100048028E81882359F48981282F30E08F8104
:100A20009885FC01E20FF31F81E0808309C0898172
:100A3000282F30E08F819885FC01E20FF31F108290
:100A400089818F5F89838A818F5F8A838A818430DD
:100A500098F28C818F5F8C838C81843008F4A9CFCD
:100A60008D8128960FB6F894DEBF0FBECDBFCF9113
:100A7000DF910895DF93CF9300D000D00F92CDB7D0
:100A8000DEB79C838B836D831A828B819C81009758
:100A900019F481E08A8353C08D81823039F519823F
:100AA00021C08981882F90E0FC01E053FF4F8081B5
:100AB000982F909583E0692F0E94F4028981282F56
:100AC00030E08B819C81FC01E20FF31F908182E07A
:100AD000692F0E94F40281E090E00E9494038981D2
:100AE0008F5F898389818830E0F229C08D818130D0
:100AF00031F5198221C08981882F90E0FC01E053F3
:100B0000FF4F8081982F909583E0692F0E94F40217
:100B10008981282F30E08B819C81FC01E20FF31F3B
:100B2000908180E0692F0E94F40281E090E00E94B1
:100B3000940389818F5F898389818830E0F28A817B
:100B40000F900F900F900F900F90CF91DF9108951D
:040B5000F894FFCF47
:100B5400EBE3B6C1F7C1FFFFEBE3B6C1F7C1FFFF9B
:100B6400EBE3B6C1F7C1FFFFFFF7F6154315F6F740
:100B7400E3EBE3F780F7EBDDC7D7C7EF01EFD7BBB4
:100B84008FAF8FDF02DFAF771F5F1FBF04BF5FEE42
:100B94003EBE3E7F087FBEDD7C7D7CFE10FE7DBBBD
:100BA400F8FAF8FD20FDFA77F1F5F1FB40FBF5EEDC
:100BB400E3EBE3F780F7EBDD1312111017161514AE
:080BC400FEFDFBF7EFDFBF7F30
:00000001FF
