:100000000C942A000C9434000C9434000C943400AA
:100010000C9434000C9434000C9434000C94340090
:100020000C9434000C9434000C9434000C94340080
:100030000C9434000C9434000C9434000C94340070
:100040000C9434000C9434000C9434000C94340060
:100050000C94340011241FBECFE5D8E0DEBFCDBF25
:100060000E9414040C9484040C940000DF93CF933A
:10007000CDB7DEB7EAE3F0E08FEF8083E7E3F0E0AF
:100080008FEF8083E4E3F0E08FEF8083E1E3F0E043
:100090008FEF8083EBE3F0E08FEF8083E8E3F0E025
:1000A0008FEF8083E5E3F0E08FEF8083E2E3F0E021
:1000B0008FEF8083CF91DF910895DF93CF93CDB7FA
:1000C000DEB727970FB6F894DEBF0FBECDBF8C8387
:1000D0006D831B828C81803230F48D81813031F0D0
:1000E0008D81882319F081E08B83CEC08C8187704D
:1000F0008A838C8186958695869589838981282F28
:1001000030E03F832E836E817F816130710509F479
:1001100041C08E819F818230910534F42E813F81D0
:100120002115310571F0B0C06E817F81623071059B
:1001300009F459C08E819F818330910509F47CC0F8
:10014000A3C08D81882321F08D81813009F01D822B
:10015000AAE3B0E0EAE3F0E08081482F8A81282F0B
:1001600030E081E090E002C0880F991F2A95E2F705
:10017000809548238D81282F30E08A81882F90E058
:10018000B90102C0660F771F8A95E2F7CB01842B75
:100190008C937AC08D81882321F08D81813009F084
:1001A0001D82A7E3B0E0E7E3F0E08081482F8A8179
:1001B000282F30E081E090E002C0880F991F2A9537
:1001C000E2F7809548238D81282F30E08A81882F9F
:1001D00090E0B90102C0660F771F8A95E2F7CB0164
:1001E000842B8C9351C08D81882321F08D818130A7
:1001F00009F01D82A4E3B0E0E4E3F0E08081482F41
:100200008A81282F30E081E090E002C0880F991F9A
:100210002A95E2F7809548238D81282F30E08A8146
:10022000882F90E0B90102C0660F771F8A95E2F728
:10023000CB01842B8C9328C08D81882321F08D8164
:10024000813009F01D82A1E3B0E0E1E3F0E08081BC
:10025000482F8A81282F30E081E090E002C0880F8B
:10026000991F2A95E2F7809548238D81282F30E049
:100270008A81882F90E0B90102C0660F771F8A95A6
:10028000E2F7CB01842B8C938B8127960FB6F894E1
:10029000DEBF0FBECDBFCF91DF910895DF93CF9327
:1002A000CDB7DEB727970FB6F894DEBF0FBECDBF30
:1002B0008C836D831B828C81803230F48D81813000
:1002C00031F08D81882319F081E08B83CEC08C8141
:1002D00087708A838C8186958695869589838981A6
:1002E000282F30E03F832E836E817F81613071053E
:1002F00009F441C08E819F818230910534F42E81B2
:100300003F812115310571F0B0C06E817F8162306F
:10031000710509F459C08E819F818330910509F4DC
:100320007CC0A3C08D81882321F08D81813009F0AC
:100330001D82ABE3B0E0EBE3F0E08081482F8A81DF
:10034000282F30E081E090E002C0880F991F2A95A5
:10035000E2F7809548238D81282F30E08A81882F0D
:1003600090E0B90102C0660F771F8A95E2F7CB01D2
:10037000842B8C937AC08D81882321F08D818130EC
:1003800009F01D82A8E3B0E0E8E3F0E08081482FA7
:100390008A81282F30E081E090E002C0880F991F09
:1003A0002A95E2F7809548238D81282F30E08A81B5
:1003B000882F90E0B90102C0660F771F8A95E2F797
:1003C000CB01842B8C9351C08D81882321F08D81AA
:1003D000813009F01D82A5E3B0E0E5E3F0E0808123
:1003E000482F8A81282F30E081E090E002C0880FFA
:1003F000991F2A95E2F7809548238D81282F30E0B8
:100400008A81882F90E0B90102C0660F771F8A9514
:10041000E2F7CB01842B8C9328C08D81882321F0B7
:100420008D81813009F01D82A2E3B0E0E2E3F0E0CB
:100430008081482F8A81282F30E081E090E002C03F
:10044000880F991F2A95E2F7809548238D81282FE0
:1004500030E08A81882F90E0B90102C0660F771FD3
:100460008A95E2F7CB01842B8C938B8127960FB66C
:10047000F894DEBF0FBECDBFCF91DF910895DF931B
:10048000CF93CDB7DEB728970FB6F894DEBF0FBE77
:10049000CDBF8C837E836D831B828C81803220F460
:1004A0008D819E81009719F481E08B8388C08C81B7
:1004B00087708A838C8186958695869589838981C4
:1004C000282F30E038872F834F81588541305105E0
:1004D00079F18F8198858230910534F42F813885A8
:1004E0002115310569F06BC04F81588542305105A7
:1004F000B9F18F8198858330910509F449C05FC0B7
:10050000A9E3B0E0E9E3F0E08081282F30E08A81C0
:10051000882F90E0A90102C0559547958A95E2F78A
:10052000CA0181708C938C91ED81FE81808347C0DC
:10053000A6E3B0E0E6E3F0E08081282F30E08A8196
:10054000882F90E0A90102C0559547958A95E2F75A
:10055000CA0181708C938C91ED81FE8180832FC0C4
:10056000A3E3B0E0E3E3F0E08081282F30E08A816C
:10057000882F90E0A90102C0559547958A95E2F72A
:10058000CA0181708C938C91ED81FE81808317C0AC
:10059000A0E3B0E0E0E3F0E08081282F30E08A8142
:1005A000882F90E0A90102C0559547958A95E2F7FA
:1005B000CA0181708C938C91ED81FE8180838B8147
:1005C00028960FB6F894DEBF0FBECDBFCF91DF9156
:1005D0000895DF93CF9300D00F92CDB7DEB78A8313
:1005E0006B83198281E0898389810F900F900F902E
:1005F000CF91DF910895DF93CF9300D000D00F9279
:10060000CDB7DEB78A836B8319828A81843018F074
:1006100081E0898332C08A81282F30E03D832C839A
:100620008C819D8181309105D1F02C813D812230DA
:1006300031052CF48C819D81009761F01EC02C81C6
:100640003D812230310581F08C819D81833091057F
:1006500081F013C0EBE3F0E08B8180830EC0E8E310
:10066000F0E08B81808309C0E5E3F0E08B8180833B
:1006700004C0E2E3F0E08B81808389810F900F90CA
:100680000F900F900F90CF91DF910895DF93CF934C
:1006900000D000D000D0CDB7DEB78A837C836B83D7
:1006A00019828A81843018F081E089833AC08A8176
:1006B000282F30E03E832D838D819E8181309105EE
:1006C000E1F02D813E81223031052CF48D819E8117
:1006D000009761F026C02D813E8122303105A1F0C6
:1006E0008D819E8183309105B1F01BC0E9E3F0E07C
:1006F0008081EB81FC81808314C0E6E3F0E080819F
:10070000EB81FC8180830DC0E3E3F0E08081EB812D
:10071000FC81808306C0E0E3F0E08081EB81FC8116
:100720008083898126960FB6F894DEBF0FBECDBFB9
:10073000CF91DF910895DF93CF93CDB7DEB72A979E
:100740000FB6F894DEBF0FBECDBF6F837887898761
:100750009A878F819885A985BA8528EE33E040E095
:1007600050E0BC01CD010E944304DC01CB018F832A
:100770009887A987BA878F819885A985BA858D556D
:100780009040A040B0408F839887A987BA878F8117
:100790009885A985BA8528EE33E040E050E0BC0199
:1007A000CD010E946204DA01C9018F839887A9876D
:1007B000BA871B821C821D821E8220C01A82198267
:1007C0000CC000000000000000000000000000005D
:1007D00089819A8101969A83898389819A8122E00D
:1007E0008E34920770F38B819C81AD81BE8101961E
:1007F000A11DB11D8B839C83AD83BE832B813C8166
:100800004D815E818F819885A985BA852817390722
:100810004A075B0798F22A960FB6F894DEBF0FBE20
:10082000CDBFCF91DF910895DF93CF93CDB7DEB7E2
:100830000E94360080E06EEF0E94FB0264E070E0F0
:1008400080E090E00E949B0380E06DEF0E94FB023D
:1008500064E070E080E090E00E949B0380E06BEF3A
:100860000E94FB0264E070E080E090E00E949B0345
:1008700080E067EF0E94FB0264E070E080E090E0BF
:100880000E949B03D7CF629FD001739FF001829F8C
:10089000E00DF11D649FE00DF11D929FF00D839F0F
:1008A000F00D749FF00D659FF00D9927729FB00DAC
:1008B000E11DF91F639FB00DE11DF91FBD01CF01BF
:1008C00011240895A1E21A2EAA1BBB1BFD010DC025
:1008D000AA1FBB1FEE1FFF1FA217B307E407F507F0
:1008E00020F0A21BB30BE40BF50B661F771F881FCC
:1008F000991F1A9469F760957095809590959B0162
:0C090000AC01BD01CF010895F894FFCFB9
:00000001FF
